{
  "contractName": "CertificateVerifier",
  "abi": [
    {
      "inputs": [],
      "stateMutability": "nonpayable",
      "type": "constructor"
    },
    {
      "anonymous": false,
      "inputs": [
        {
          "indexed": true,
          "internalType": "bytes32",
          "name": "certificateHash",
          "type": "bytes32"
        },
        {
          "indexed": false,
          "internalType": "string",
          "name": "ipfsHash",
          "type": "string"
        },
        {
          "indexed": false,
          "internalType": "address",
          "name": "issuer",
          "type": "address"
        }
      ],
      "name": "CertificateIssued",
      "type": "event"
    },
    {
      "anonymous": false,
      "inputs": [
        {
          "indexed": true,
          "internalType": "bytes32",
          "name": "certificateHash",
          "type": "bytes32"
        }
      ],
      "name": "CertificateRevoked",
      "type": "event"
    },
    {
      "inputs": [
        {
          "internalType": "address",
          "name": "",
          "type": "address"
        }
      ],
      "name": "authorizedIssuers",
      "outputs": [
        {
          "internalType": "bool",
          "name": "",
          "type": "bool"
        }
      ],
      "stateMutability": "view",
      "type": "function",
      "constant": true
    },
    {
      "inputs": [
        {
          "internalType": "bytes32",
          "name": "",
          "type": "bytes32"
        }
      ],
      "name": "certificates",
      "outputs": [
        {
          "internalType": "string",
          "name": "ipfsHash",
          "type": "string"
        },
        {
          "internalType": "uint256",
          "name": "issueDate",
          "type": "uint256"
        },
        {
          "internalType": "address",
          "name": "issuer",
          "type": "address"
        },
        {
          "internalType": "bool",
          "name": "isRevoked",
          "type": "bool"
        }
      ],
      "stateMutability": "view",
      "type": "function",
      "constant": true
    },
    {
      "inputs": [],
      "name": "owner",
      "outputs": [
        {
          "internalType": "address",
          "name": "",
          "type": "address"
        }
      ],
      "stateMutability": "view",
      "type": "function",
      "constant": true
    },
    {
      "inputs": [
        {
          "internalType": "address",
          "name": "issuer",
          "type": "address"
        },
        {
          "internalType": "bool",
          "name": "status",
          "type": "bool"
        }
      ],
      "name": "setIssuerStatus",
      "outputs": [],
      "stateMutability": "nonpayable",
      "type": "function"
    },
    {
      "inputs": [
        {
          "internalType": "bytes32",
          "name": "certificateHash",
          "type": "bytes32"
        },
        {
          "internalType": "string",
          "name": "ipfsHash",
          "type": "string"
        }
      ],
      "name": "issueCertificate",
      "outputs": [],
      "stateMutability": "nonpayable",
      "type": "function"
    },
    {
      "inputs": [
        {
          "internalType": "bytes32",
          "name": "certificateHash",
          "type": "bytes32"
        }
      ],
      "name": "revokeCertificate",
      "outputs": [],
      "stateMutability": "nonpayable",
      "type": "function"
    },
    {
      "inputs": [
        {
          "internalType": "bytes32",
          "name": "certificateHash",
          "type": "bytes32"
        }
      ],
      "name": "verifyCertificate",
      "outputs": [
        {
          "internalType": "bool",
          "name": "exists",
          "type": "bool"
        },
        {
          "internalType": "bool",
          "name": "isValid",
          "type": "bool"
        },
        {
          "internalType": "string",
          "name": "ipfsHash",
          "type": "string"
        },
        {
          "internalType": "uint256",
          "name": "issueDate",
          "type": "uint256"
        },
        {
          "internalType": "address",
          "name": "issuer",
          "type": "address"
        }
      ],
      "stateMutability": "view",
      "type": "function",
      "constant": true
    }
  ],
  "bytecode": "0x608060405234801561001057600080fd5b50600080546001600160a01b0319163390811782558152600260205260409020805460ff19166001179055610a948061004a6000396000f3fe608060405234801561001057600080fd5b506004361061007d5760003560e01c8063baf75ec71161005b578063baf75ec7146100fd578063c1e481e314610112578063c6cbc52a14610125578063f731fa0f1461013857600080fd5b8063742f068814610082578063850c1768146100ae5780638da5cb5b146100d2575b600080fd5b61009561009036600461067e565b61016b565b6040516100a594939291906106dd565b60405180910390f35b6100c16100bc36600461067e565b61022a565b6040516100a5959493929190610717565b6000546100e5906001600160a01b031681565b6040516001600160a01b0390911681526020016100a5565b61011061010b366004610772565b61034f565b005b610110610120366004610849565b6104ab565b61011061013336600461067e565b61053b565b61015b610146366004610885565b60026020526000908152604090205460ff1681565b60405190151581526020016100a5565b600160205260009081526040902080548190610186906108a7565b80601f01602080910402602001604051908101604052809291908181526020018280546101b2906108a7565b80156101ff5780601f106101d4576101008083540402835291602001916101ff565b820191906000526020600020905b8154815290600101906020018083116101e257829003601f168201915b5050505060018301546002909301549192916001600160a01b0381169150600160a01b900460ff1684565b6000806060600080600060016000888152602001908152602001600020604051806080016040529081600082018054610262906108a7565b80601f016020809104026020016040519081016040528092919081815260200182805461028e906108a7565b80156102db5780601f106102b0576101008083540402835291602001916102db565b820191906000526020600020905b8154815290600101906020018083116102be57829003601f168201915b505050918352505060018201546020808301919091526002909201546001600160a01b0381166040830152600160a01b900460ff1615156060909101528101511580159750909150869061033157508060600151155b81516020830151604090930151979991985096919550909350915050565b3360009081526002602052604090205460ff166103875760405162461bcd60e51b815260040161037e906108e1565b60405180910390fd5b60008281526001602081905260409091200154156103e75760405162461bcd60e51b815260206004820152601a60248201527f436572746966696361746520616c726561647920657869737473000000000000604482015260640161037e565b60408051608081018252828152426020808301919091523382840152600060608301819052858152600190915291909120815181906104269082610974565b5060208201516001820155604080830151600290920180546060909401511515600160a01b026001600160a81b03199094166001600160a01b03909316929092179290921790555182907fbd708949a94bcb22c03687820c8299d7e4f40b442e7652b026fc0f55997092119061049f9084903390610a34565b60405180910390a25050565b6000546001600160a01b031633146105105760405162461bcd60e51b815260206004820152602260248201527f4f6e6c79206f776e65722063616e20706572666f726d2074686973206163746960448201526137b760f11b606482015260840161037e565b6001600160a01b03919091166000908152600260205260409020805460ff1916911515919091179055565b3360009081526002602052604090205460ff1661056a5760405162461bcd60e51b815260040161037e906108e1565b600081815260016020819052604090912001546105c95760405162461bcd60e51b815260206004820152601a60248201527f436572746966696361746520646f6573206e6f74206578697374000000000000604482015260640161037e565b600081815260016020526040902060020154600160a01b900460ff16156106325760405162461bcd60e51b815260206004820152601b60248201527f436572746966696361746520616c7265616479207265766f6b65640000000000604482015260640161037e565b600081815260016020526040808220600201805460ff60a01b1916600160a01b1790555182917f44d80a438cb4fa3b5aedbe551ce3d9382e37f446917b783e1dee70a03b4180e391a250565b60006020828403121561069057600080fd5b5035919050565b6000815180845260005b818110156106bd576020818501810151868301820152016106a1565b506000602082860101526020601f19601f83011685010191505092915050565b6080815260006106f06080830187610697565b6020830195909552506001600160a01b039290921660408301521515606090910152919050565b8515158152841515602082015260a06040820152600061073a60a0830186610697565b6060830194909452506001600160a01b03919091166080909101529392505050565b634e487b7160e01b600052604160045260246000fd5b6000806040838503121561078557600080fd5b82359150602083013567ffffffffffffffff808211156107a457600080fd5b818501915085601f8301126107b857600080fd5b8135818111156107ca576107ca61075c565b604051601f8201601f19908116603f011681019083821181831017156107f2576107f261075c565b8160405282815288602084870101111561080b57600080fd5b8260208601602083013760006020848301015280955050505050509250929050565b80356001600160a01b038116811461084457600080fd5b919050565b6000806040838503121561085c57600080fd5b6108658361082d565b91506020830135801515811461087a57600080fd5b809150509250929050565b60006020828403121561089757600080fd5b6108a08261082d565b9392505050565b600181811c908216806108bb57607f821691505b6020821081036108db57634e487b7160e01b600052602260045260246000fd5b50919050565b60208082526024908201527f4e6f7420617574686f72697a656420746f2069737375652063657274696669636040820152636174657360e01b606082015260800190565b601f82111561096f57600081815260208120601f850160051c8101602086101561094c5750805b601f850160051c820191505b8181101561096b57828155600101610958565b5050505b505050565b815167ffffffffffffffff81111561098e5761098e61075c565b6109a28161099c84546108a7565b84610925565b602080601f8311600181146109d757600084156109bf5750858301515b600019600386901b1c1916600185901b17855561096b565b600085815260208120601f198616915b82811015610a06578886015182559484019460019091019084016109e7565b5085821015610a245787850151600019600388901b60f8161c191681555b5050505050600190811b01905550565b604081526000610a476040830185610697565b905060018060a01b0383166020830152939250505056fea2646970667358221220c859f37d3d27ef496447a83c31149bb0005d5d2c9a62bc2abd110a5b8afea37264736f6c63430008110033",
  "immutableReferences": {},
  "source": "// SPDX-License-Identifier: MIT\r\npragma solidity ^0.8.0;\r\n\r\ncontract CertificateVerifier {\r\n    address public owner;\r\n    \r\n    // Maps hash of (studentId + certificateData) to certificate metadata\r\n    mapping(bytes32 => CertificateInfo) public certificates;\r\n    \r\n    struct CertificateInfo {\r\n        string ipfsHash;      // IPFS hash of the full certificate\r\n        uint256 issueDate;    // Timestamp when certificate was issued\r\n        address issuer;       // Address of the institution that issued the certificate\r\n        bool isRevoked;       // Certificate revocation status\r\n    }\r\n    \r\n    // Events for logging\r\n    event CertificateIssued(bytes32 indexed certificateHash, string ipfsHash, address issuer);\r\n    event CertificateRevoked(bytes32 indexed certificateHash);\r\n    \r\n    // Authorized institutions that can issue certificates\r\n    mapping(address => bool) public authorizedIssuers;\r\n    \r\n    constructor() {\r\n        owner = msg.sender;\r\n        authorizedIssuers[msg.sender] = true;\r\n    }\r\n    \r\n    modifier onlyOwner() {\r\n        require(msg.sender == owner, \"Only owner can perform this action\");\r\n        _;\r\n    }\r\n    \r\n    modifier onlyAuthorized() {\r\n        require(authorizedIssuers[msg.sender], \"Not authorized to issue certificates\");\r\n        _;\r\n    }\r\n    \r\n    // Add or remove authorized issuers\r\n    function setIssuerStatus(address issuer, bool status) external onlyOwner {\r\n        authorizedIssuers[issuer] = status;\r\n    }\r\n    \r\n    // Issue a new certificate\r\n    function issueCertificate(bytes32 certificateHash, string memory ipfsHash) external onlyAuthorized {\r\n        require(certificates[certificateHash].issueDate == 0, \"Certificate already exists\");\r\n        \r\n        certificates[certificateHash] = CertificateInfo({\r\n            ipfsHash: ipfsHash,\r\n            issueDate: block.timestamp,\r\n            issuer: msg.sender,\r\n            isRevoked: false\r\n        });\r\n        \r\n        emit CertificateIssued(certificateHash, ipfsHash, msg.sender);\r\n    }\r\n    \r\n    // Revoke a certificate if needed\r\n    function revokeCertificate(bytes32 certificateHash) external onlyAuthorized {\r\n        require(certificates[certificateHash].issueDate > 0, \"Certificate does not exist\");\r\n        require(!certificates[certificateHash].isRevoked, \"Certificate already revoked\");\r\n        \r\n        certificates[certificateHash].isRevoked = true;\r\n        emit CertificateRevoked(certificateHash);\r\n    }\r\n    \r\n    // Verify a certificate (public method, no gas cost if called externally)\r\n    function verifyCertificate(bytes32 certificateHash) external view returns (\r\n        bool exists,\r\n        bool isValid,\r\n        string memory ipfsHash,\r\n        uint256 issueDate,\r\n        address issuer\r\n    ) {\r\n        CertificateInfo memory cert = certificates[certificateHash];\r\n        \r\n        exists = cert.issueDate > 0;\r\n        isValid = exists && !cert.isRevoked;\r\n        \r\n        return (\r\n            exists,\r\n            isValid,\r\n            cert.ipfsHash,\r\n            cert.issueDate,\r\n            cert.issuer\r\n        );\r\n    }\r\n}",
  "sourcePath": "C:\\Users\\LENOVO\\Desktop\\mayur\\blockchain-certificate-system\\contracts\\CertificateVerifier.sol",
  "compiler": {
    "name": "solc",
    "version": "0.8.17+commit.8df45f5f.Emscripten.clang"
  },
  "schemaVersion": "3.4.16",
  "updatedAt": "2025-04-17T05:37:02.613Z",
  "networkType": "ethereum",
  "devdoc": {
    "kind": "dev",
    "methods": {},
    "version": 1
  },
  "userdoc": {
    "kind": "user",
    "methods": {},
    "version": 1
  }
}